:020000040800F2
:10000000D8D0002049010008F9030008FB030008CC
:1000100003040008050400080704000800000000AD
:1000200000000000000000000000000009040008BB
:100030000B040008000000000D0400080F04000875
:100040006301000863010008630100086301000800
:1000500063010008630100086301000863010008F0
:1000600063010008630100086301000863010008E0
:1000700063010008630100086301000863010008D0
:1000800063010008630100086301000863010008C0
:1000900063010008630100086301000863010008B0
:1000A00063010008630100086301000863010008A0
:1000B0006301000863010008630100086301000890
:1000C0006301000863010008630100086301000880
:1000D0006301000863010008630100086301000870
:1000E0006301000863010008630100086301000860
:1000F0006301000863010008630100086301000850
:10010000630100086301000863010008630100083F
:10011000630100086301000863010008630100082F
:10012000630100086301000863010008630100081F
:10013000DFF810D005F028FC00480047CD0100088A
:10014000AFF30080D8D0002006488047064800471B
:10015000FEE7FEE7FEE7FEE7FEE7FEE7FEE7FEE777
:10016000FEE7FEE7FD1900083101000820A005F0B8
:100170001DFCFBE730B58FB02821684605F0F0F98B
:1001800014210AA805F0ECF901210804CDE90010BA
:100190000024029402250491CDE907504FF4E010A9
:1001A0000990684602F0DFFF60B90F20CDE90A052B
:1001B0006802CDE90C4002210AA80E9403F095F9DB
:1001C000002801D0FFF7D2FF0FB030BD02F0C4FE0F
:1001D000FFF7D0FF00F016F800F0A2F800F042F8A8
:1001E00000F040F942F21074204602F0F1FEFBE705
:1001F0005F4572726F725F48616E646C65720D0A62
:100200000000000030B585B000241448009401942B
:1002100002940394816941F0040181618069104D69
:1002200000F00400049022465621284603F016FCF4
:10023000562000900120CDE9010402200390694678
:10024000284603F09FFA0820CDE9000469462846B5
:10025000029403F097FA05B030BD00000010024090
:10026000000801402B4810B5294901604FF4827104
:10027000416000218160C1604FF400720161C0E9FA
:1002800005122822C0E90721416281620A21C16268
:1002900001F017FC002803D0BDE81040FFF766BF4F
:1002A00010BD00B585B0002100910191029103912C
:1002B0000068174988421AD11748816941F4805172
:1002C0008161816901F480510491816941F00401E7
:1002D00081618069694600F004000490A0200090CC
:1002E00002200190032003900C4803F04BFA05B064
:1002F00000BD00680649884208D10748816921F499
:1003000080518161A021054803F023BB70470000A4
:100310000030014028000020001002400008014089
:10032000324810B5304901604FF4E131416000219D
:1003300081600C22C160C0E904128161C16104F0D6
:1003400027FA002803D0BDE81040FFF70FBF10BD0B
:1003500030B585B0002400940194029403940068A1
:100360002149884224D12248816941F48041816138
:10037000816901F480410491816941F00401816146
:1003800080691C4D00F0040004904FF40070009050
:1003900002200190032003906946284603F0F2F9F9
:1003A0002815CDE9000469462846029403F0EAF9CD
:1003B00005B030BD00680C49884209D10C488169FC
:1003C00021F4804181614FF4C0610A4803F0C1BA51
:1003D000704713B54FF6FF7301226946034804F0D6
:1003E00010FB00981CBD0000003801408000002078
:1003F0000010024000080140704706A005F0D6FA40
:10040000FEE7FEE7FEE7FEE770477047704702F041
:10041000C1BD0000486172644661756C745F4861DB
:100420006E646C65720000000C4808B5816941F08B
:1004300001018161816901F001010091C16941F00F
:100440008051C161C06900F080500090044841684B
:1004500021F0E06141F00071416008BD00100240F0
:10046000000001407CB532A005F0A0FA00F0B7FA18
:1004700000F07EF934A005F099FA00F09BF94FF4F2
:10048000945005F0B7FB04004CD036A005F08EFA6E
:10049000FF254FF487734FF4947280212046009516
:1004A00000F0D2FA204600F0EBFA33A005F07EFA15
:1004B000FF2000F0BCFB38A005F078FA204600F0E1
:1004C000A2F90020CDE900053B4B3CA2142182207B
:1004D00000F0A7FF204600F096F94FF4FA65284691
:1004E00002F076FD44F6206002F072FD34A005F0C3
:1004F0005DFA00F03DF900F05DF9284602F068FD74
:1005000032A005F053FA00F0C2F9204605F04AFB8C
:10051000284602F05DFD31A005F048FA00F077FAB8
:1005200000207CBD3AA005F041FA4FF0FF307CBDC1
:100530004550445F32494E39445F746573742044BA
:10054000656D6F0D0A000000652D506170657220A9
:10055000496E697420616E6420436C6561722E2E51
:100560002E0D0A005061696E745F4E6577496D61AA
:1005700067650D0A0000000053746172742E2E2E00
:100580002E2E2E2E2E2E2E2E2E2E2E2E2E2E2E2E8B
:100590002E2E2E2E2E0D0A00656E642E2E2E2E2E41
:1005A0002E2E2E2E2E2E2E2E2E2E2E2E2E2E2E2E6B
:1005B0002E2E2E0D0A00000000000020BAC30000FD
:1005C000436C6561722E2E2E0D0A0000476F746F0A
:1005D00020536C6565702E2E2E0D0A00636C6F73B0
:1005E000652035562C204D6F64756C6520656E74E2
:1005F000657273203020706F77657220636F6E7341
:10060000756D7074696F6E202E2E2E0D0A0000001D
:100610004661696C656420746F206170706C79202C
:10062000666F7220626C61636B206D656D6F7279AD
:100630002E2E2E0D0A00000010B5D4A005F0B6F93C
:10064000D84C712000F073F90821204603F001FA1C
:1006500040F30000401CF4D1142002F0B9FCBDE8C6
:100660001040D1A005F0A2B970B5012000F05FF9EB
:10067000032000F06EF9002000F06BF92B2000F051
:1006800068F92B2000F065F9032000F062F90620DC
:1006900000F04DF9172000F05CF9172000F059F92F
:1006A000172000F056F9042000F041F9FFF7C4FFCD
:1006B000002000F03CF9BF2000F04BF9302000F0A2
:1006C00036F93A2000F045F9612000F030F9802039
:1006D00000F03FF9012000F03CF9282000F039F942
:1006E000822000F024F9122000F033F9502000F0AD
:1006F0001EF9972000F02DF9202000F018F9B24DD6
:100700000024285D00F025F9641C2C2CF9D321204D
:1007100000F00DF9AC4D00242C35285D00F019F9DE
:10072000641C2A2CF9D3222000F001F9A64D0024E4
:100730005635285D00F00DF9641C2A2CF9D32320CE
:1007400000F0F5F8A04D00248035285D00F001F997
:10075000641C2A2CF9D3242000F0E9F89A4D0024D7
:10076000AA35285D00F0F5F8641C2A2CF9D370BD79
:1007700010B500F0A0F8042000F0D9F8FFF75CFFF6
:10078000002000F0D4F81F2000F0E3F8612000F012
:10079000CEF8802000F0DDF8012000F0DAF8282003
:1007A00000F0D7F8502000F0C2F8BDE810409720C4
:1007B00000F0CFB82DE9F04110264FF49475304683
:1007C00000F0B5F800270024002000F0C2F8641CF7
:1007D000A4B2B442F8D37F1CBFB2AF42F3D313200C
:1007E00000F0A5F800270024FF2000F0B2F8641CF8
:1007F000A4B2B442F8D37F1CBFB2AF42F3D3BDE87A
:10080000F04100F0B8B810B5132000F090F8BDE842
:10081000104000F0B0B82DE9F0478046FFF724FF04
:10082000912000F084F8902000F081F8002000F082
:1008300090F87F2000F08DF8002000F08AF800206A
:1008400000F087F8012000F084F8272000F081F8FC
:10085000282000F07EF81027132000F068F800240C
:100860004FF49479002504FB07F600BF08EB050060
:10087000305C00F06EF86D1CADB2BD42F6D3641C66
:10088000A4B24C45EED3BDE8F04700F074B810B503
:10089000502000F04CF8F72000F05BF8022000F048
:1008A00046F8FFF7C9FE072000F041F8BDE8104008
:1008B000A52000F04EB810B53A4C01220221204686
:1008C00003F0CCF8142002F083FB00220221204622
:1008D00003F0C4F8022002F07BFB01220221204633
:1008E00003F0BCF8142002F073FB00220221204622
:1008F00003F0B4F8022002F06BFB01220221204633
:1009000003F0ACF8142002F063FB00220221204621
:1009100003F0A4F8022002F05BFB01220221204632
:1009200003F09CF8BDE81040142002F051BB70B5F4
:100930001C4C054600220421204603F08FF80022BB
:100940001021204603F08AF82846BDE8704000F0E8
:100950003DB870B5134C054601220421204603F032
:100960007DF800221021204603F078F82846BDE8E3
:10097000704000F02BB810B51220FFF7D8FF0A2006
:1009800002F026FBBDE8104056E6000044656275A3
:10099000673A20652D506170657220627573790D1C
:1009A0000A0000000008014044656275673A20654E
:1009B0002D506170657220627573792072656C6567
:1009C0006173650D0A000000605C000801B54FF41A
:1009D0007A73012269461A4801F03EF908BD10B544
:1009E000184C00220421204603F038F80022102180
:1009F000204603F033F801224021204603F02EF870
:100A000001220221204603F029F8002010BD10B574
:100A10000C4C00220421204603F020F80022102173
:100A2000204603F01BF800224021204603F016F870
:100A300020460022BDE81040022103F00FB800005C
:100A4000280000200008014070B5FF4C049E0025DE
:100A5000206021816281A6810220E0824E074FEA58
:100A6000D10000D0401C6082A282E381258223B1A4
:100A7000B42B02D0A280E18070BDA180E28070BD65
:100A8000F1490860704710B504000BD05A2C09D00A
:100A9000B42C07D0B4F5877F04D0BDE81040EBA09C
:100AA00004F084BF0146F2A004F080FFE648C48150
:100AB00010BDE54910B50A8902280BD0042811D0D1
:100AC000072815D0F2A004F071FFBDE81040FBA08C
:100AD00004F06CBFC882DC4852070089C0080CE0F3
:100AE000488210BDC882D84892070089800804E077
:100AF000C882D548D20700894008002AF0D0401C9F
:100B0000EEE710B504000AD0012C08D0022C06D064
:100B1000032C04D0BDE81040F14804F047BF600842
:100B2000C00701D0EFA200E0F0A2E00701D0EDA1E4
:100B300000E0EEA1EFA004F039FFC348048210BD2D
:100B4000F0B4C14CA388834234D3E3888B4231D3C1
:100B50002346E7891E895D89CFB15A2F1AD0B42F59
:100B60001CD0B7F5877F40D10B46281A401E80B2B3
:100B7000218AD9B1012916D0022904D0032934D100
:100B8000F11A491E8BB2281A401E80B20EE00346AD
:100B90000846EDE7711A491E8BB2E9E7301A401E8C
:100BA00083B2681AE2E7F11A491E8BB29E4201D362
:100BB000854203D2F0BCD8A004F0F8BEA249E58A71
:100BC0004C8A0968022D12D0042D21D0072D0CD19A
:100BD000444304EB5304DB075B0FF025DD40085D65
:100BE0001201A843DA4002430A55F0BC704744435F
:100BF00004EBD3048020002A0D5D03F0070220FAE5
:100C000002F002D028430855EFE785430D55ECE785
:100C1000444304EB930094079B075D0F0A5CC023D9
:100C2000EB409A43230EEB4013430B54DDE730B502
:100C30008549CA8A022A08D0042A1AD0072A17D15D
:100C400040EA00100022C3B23BE00022C3B20CE035
:100C5000002005E002FB04040D68401C80B22B5507
:100C60004C8A8442F6D8521C92B2888A9042EFD8BD
:100C700030BD830143EA0013002243EA80030343AB
:100C8000DBB20CE0002005E002FB04040D68401C10
:100C900080B22B554C8A8442F6D8521C92B2888A74
:100CA0009042EFD830BD002006E000BF02FB0404F4
:100CB0000D68401C80B22B554C8A8442F6D8521CD9
:100CC00092B2888A9042EED830BD2DE9F0471F4697
:100CD00016460D468046DDF820900CE0444606E0BE
:100CE0004A4629462046FFF72BFF641CA4B2B442B3
:100CF000F6D36D1CADB2BD42F0D3BDE8F0872DE94F
:100D0000F05F514D93468146AA880A981C46884652
:100D10004A4502D3EA8842450ED289A004F046FE35
:100D2000AA88494696A004F041FEEA884146BDE8FB
:100D3000F05F9CA004F03ABE012801D0002635E007
:100D40000025681E00EB440719E009EB05000026AA
:100D5000A0EB040A0FE000BFBAF1000F0DD408EBBE
:100D60000600001B09D481B21FFA8AF05A46FFF729
:100D7000E7FE761C36B2B742EEDC6D1C2DB2AF42F8
:100D8000E3DCBDE8F09F002509EB06077F1E09E0C4
:100D900008EB0500401E81B2B8B25A46FFF7D0FEFC
:100DA0006D1C2DB2A542F3DB761C36B2A642EADBFF
:100DB000E7E72DE9FE4F1D46234B16469A888242EF
:100DC00006D3DB888B4203D3B24201D3AB4204D2B9
:100DD000BDE8FE4F7DA004F0E9BD83468A46321A85
:100DE00000D5821B91466A1A002A00DD4A1B9046F4
:100DF0004FF0FF32B34501D2012000E010460290CF
:100E0000AA4500D2012209EB0804002701927F1CA9
:100E10000E98FFB2012805D10320B7FBF0F100FBCB
:100E2000117068B10120DDE90C230090514658464D
:100E3000FFF765FFB8EB440F03DCB34502D0E5E0F4
:100E4000F6E0E9E0FEE00000C000002044656275C5
:100E5000673A20726F74617465203D20302C203910
:100E6000302C203138302C203237300D0A00000071
:100E700044656275673A2053657420696D616765E2
:100E800020526F746174652025640D0A0000000013
:100E900044656275673A20536574205363616C65DD
:100EA00020496E70757420706172616D6574657231
:100EB000206572726F720D0A000000004465627551
:100EC000673A205363616C65204F6E6C79207375AF
:100ED00070706F72743A2032203420370D0A00008F
:100EE000D06E00086D6972726F7200006E6F6E6571
:100EF0000000000044656275673A206D6972726F88
:100F00007220696D61676520783A25732C20793AE3
:100F100025730D0A0000000044656275673A20459C
:100F20007863656564696E6720646973706C617964
:100F300020626F756E6461726965730D0A0000004E
:100F400044656275673A205061696E745F447261EE
:100F500077506F696E7420496E7075742065786380
:100F60006565647320746865206E6F726D616C20B6
:100F7000646973706C61792072616E67650D0A0037
:100F800058706F696E74203D202564202C205061BC
:100F9000696E742E5769647468203D202564202092
:100FA0000D0A200059706F696E74203D2025642061
:100FB0002C205061696E742E486569676874203D05
:100FC00020256420200D0A20000000004465627581
:100FD000673A205061696E745F447261774C696E44
:100FE0006520496E7075742065786365656473204B
:100FF000746865206E6F726D616C20646973706CCB
:1010000061792072616E67650D0A0000029944449F
:101010000BEB01001FFA80FBB9EB440FFFF6F7AEB4
:10102000AA450FD001984C4450441FFA80FAEEE6CE
:1010300001200090FF22514658460D9BFFF75FFEAE
:101040000027F7E6BDE8FE8F2DE9FE4F8246FC48FB
:1010500091460C46DDE90D5281880C9E1F46514594
:1010600006D3C088A04203D3494501D3B84204D275
:10107000BDE8FE4FF3A004F099BC0020804662B9A1
:101080000EE0CDE9006523464A4619465046CDF8A4
:101090000880FFF78EFE641CA4B2BC42F1D3D1E7F6
:1010A000CDE9006523464A4619465046CDF80880EA
:1010B000FFF77FFECDE9006552463B4621461046CC
:1010C000CDF80880FFF775FECDE900654A46234656
:1010D00039461046CDF80880FFF76BFECDE9006574
:1010E0003B46524619464846CDF80880FFF761FE58
:1010F000A8E72DE9FF4F8046D14885B00F46848888
:101100001399444502D3C088B84205D809B0D948DC
:10111000BDE8F04F04F04ABC03200024A0EB4200DD
:1011200015B20FFA80FA012978D0E7E0264660E090
:101130004FF0010908EB040007EB060B02901FFAC1
:101140008BF1CDF8009080B24B46089AFFF7D7FD9F
:10115000A8EB040004901FFA8BF1CDF8009080B248
:101160000123089AFFF7CBFD3819CDE9009081B231
:10117000A8EB060B1FFA8BF00123089AFFF7BFFDBF
:10118000381B039081B2CDF800901FFA8BF0012339
:10119000089AFFF7B4FD0498A7EB060B1FFA8BF132
:1011A000CDF8009080B20123089AFFF7A8FD0298BD
:1011B0001FFA8BF1CDF8009080B20123089AFFF757
:1011C0009EFD039808EB060B81B2CDF800901FFA44
:1011D0008BF00123089AFFF792FD0198CDF800905B
:1011E00081B21FFA8BF00123089AFFF788FD761C65
:1011F00036B2AE429CDDBAF1000F05DA0AEB84008C
:10120000801D0FFA80FA07E0611B0AEB81000A30AB
:101210006D1E0FFA80FA2DB2641C24B2AC4285DD3B
:1012200009B0BDE8F08F08EB0400012607EB0509C3
:1012300002901FFA89F1009680B2129B089AFFF77C
:101240005EFDA8EB040003901FFA89F1009680B2BE
:10125000129B089AFFF753FD3819CDE9006081B25F
:10126000A8EB05091FFA89F0129B089AFFF747FDC2
:10127000A7EB040B1FFA8BF11FFA89F00096129B63
:10128000089AFFF73CFD0398A7EB05091FFA89F1BF
:10129000009680B2129B089AFFF731FD02981FFA60
:1012A00089F1009680B2129B089AFFF728FD08EB9F
:1012B00005091FFA8BF11FFA89F00096129B089A14
:1012C000FFF71DFD0198009681B21FFA89F0129B6D
:1012D000089AFFF714FDBAF1000F05DA0AEB840053
:1012E000801D0FFA80FA07E0611B0AEB81000A30CB
:1012F0006D1E0FFA80FA2DB2641C24B2AC4292DD4E
:101300008EE72DE9F05F81464D481E46DDF82CB092
:10131000838888464B4502D3C188414504D2BDE845
:10132000F05F55A004F042BBB088410700D0012116
:1013300001EBD000203AF1885043484331684FF028
:10134000800A0F1800252EE0002423E0BBF1FF0FD8
:101350003A7804F007012AFA01F002EA000201D00B
:101360000AB908E082B108EB050081B209EB04007C
:1013700080B20A9A06E008EB050081B209EB04008E
:1013800080B25A46FFF7DCFBE043400700D17F1CE8
:10139000641CA4B2B088A042D8D83079400700D0ED
:1013A0007F1C6D1CADB2F088A842CDD8E9E42DE9D0
:1013B000FC5F8046224889460D4681884446DDF818
:1013C00034B01E461746A14203D3C1888246A942C3
:1013D00022D2BDE8FC5F384804F0E8BAB088BAF819
:1013E00004300119994203D9F188444629448DB249
:1013F000F188BAF806002944814201D944464D4695
:101400000C983346CDE900B029462046FFF779FF16
:10141000B0887F1C204484B23A78002ADED1BDE82F
:10142000FC9F2DE9F05F1D46904606468A46DDF892
:101430002CB0F3E07F294FF000006ED8AA888AE034
:10144000C000002044656275673A20496E7075746B
:10145000206578636565647320746865206E6F72BB
:101460006D616C20646973706C61792072616E6764
:10147000650D0A00786F000844656275673A205070
:1014800061696E745F447261774368617220496E6E
:101490007075742065786365656473207468652071
:1014A0006E6F726D616C20646973706C617920720B
:1014B000616E67650D0A0000346F000853232C68C5
:1014C000434314F813308B4244D153214843022143
:1014D00001EB400004EB0009002737E000242CE07A
:1014E0004FEAE47004EB507020F00700A4EB000218
:1014F000BBF1FF0F99F800104FF0800020FA02F0C6
:1015000001EA000101D009B908E079B10AEB07004E
:1015100081B2301980B20A9A06E022E00AEB070095
:1015200081B2301980B25A46FFF70AFBFA482040D0
:10153000072801D109F10109641C2889A042CFDCE8
:10154000287A400701D009F101097F1C6889B84257
:10155000C4DC02E0401C8242B0DC08F10108E888EB
:101560005BE00127AB8853E053222C68424314F818
:1015700012C08C454BD107EB4202A45C98F80120C5
:10158000944244D1532250430222296802EB400086
:1015900001EB0009002736E000242BE04FEAE4705D
:1015A00004EB507020F00700A4EB0002BBF1FF0F2A
:1015B00099F800104FF0800020FA02F001EA0001D3
:1015C00001D009B907E071B10AEB070081B2301907
:1015D00080B20A9A05E00AEB070081B2301980B2A6
:1015E0005A46FFF7ADFACC482040072801D109F14F
:1015F0000109641C2889A042D0DC287A400701D068
:1016000009F101097F1C6889B842C5DC02E0401C71
:101610008342A9DC288908F10208064498F80010E2
:1016200000297FF407AFC1E62DE9FF4FADF5037D3B
:101630008846DDE990AB814600244FF4807715465B
:101640002646394642A803F08BFF394602A803F02C
:1016500087FFB24842AA83884B4502D3C1884145DF
:1016600005D2AFA004F0A2F90DF5077DD9E50A2156
:101670000DF1080095FBF1F301FB135395FBF1F518
:1016800030330355641C24B2002DF3D11146002CD5
:1016900008DD031913F8013C8B55761C641E36B225
:1016A00024B2F4E7CDE900BA41464846869BFFF7ED
:1016B0007EFED9E72DE9FF5FADF5067D00244FF4EE
:1016C0008079164698462546494642A8959F03F0DC
:1016D00047FF494602A803F043FF42A883903046E3
:1016E000414604F04BF88D49869A83468B88934295
:1016F00003D3CA8887998A4205D289A004F056F993
:101700000DF50A7D52E64FF00A090DF1080A67B39C
:1017100004F00AF83246434604F003F804F04DF8AA
:10172000FEB2DFF83C8204E0414603F024FF761E5F
:10173000F6B2002EF8D104F008F8F9B24A46534642
:101740000CE000BF90FBF2F602FB1606303690FB71
:10175000F2F01E55641C491E24B2C9B20029F1D111
:101760002E200AF80400641C24B258464A4651460A
:1017700090FBF2F302FB130390FBF2F030330B55B6
:10178000641C24B20028F3D142A8002C08DD0A19F9
:1017900012F8012C42556D1C641E2DB224B2F4E7E0
:1017A000DDE99610CDE90001DDE98601949B839A7D
:1017B000FFF7FDFDA4E72DE9FF4F85B069A11746AE
:1017C0008046DDE9126507C902AB4FF00A0983E8DC
:1017D000070039790898B1FBF9F19A4684881AF81C
:1017E0000120CDE900564046089B0699FFF789FD88
:1017F000397908EB040BB1FBF9F209FB12111FFA5E
:101800008BF01AF80120CDE90056089B0699FFF7E6
:1018100078FDCDE900560BEB940000EB540080B24C
:101820003A22089B0699FFF76CFD797908EB440092
:10183000B1FBF9F100EB54001AF80120CDE9005694
:1018400080B2089B0699FFF75CFD797904EB440BA5
:10185000B1FBF9F209FB12110BEB08001AF8012099
:10186000CDE9005600EB540080B2089B0699FFF7C3
:1018700048FD08EB8400CDE9005600EB5400A0EBD6
:10188000940080B23A22089B0699FFF73AFDB97995
:10189000089BB1FBF9F11AF8012004EB8401CDE9B2
:1018A000005601EB080080B20699FFF72AFDBA79CD
:1018B00008EB4B00B2FBF9F109FB112180B21AF8D9
:1018C0000120CDE90056089B0699FFF71AFDA7E411
:1018D00070B50022114B0DE0002106E002FB04145C
:1018E0001E68055D491C355589B25C8A8C42F5D865
:1018F000521C92B2998A9142EED870BD2DE9FF5FD9
:101900008B46DDF838A01E4659074FEAD30000D0B9
:10191000401C8146002450E007000080C0000020E9
:1019200044656275673A205061696E745F446973FB
:101930004E756D20496E70757420657863656564B9
:101940007320746865206E6F726D616C20646973BA
:10195000706C61792072616E67650D0A000000008D
:101960000000204130313233343536373839000009
:101970000298002504FB09F704EB000819E0009821
:101980000F9900EBD5000029385C05F0070100FA3B
:1019900001F003D040F3C012521C01E0C0F3C012AA
:1019A00005EB0B001FFA88F180B2FFF7C9F86D1C38
:1019B000ADB2B542E3D3641CA4B25445D8D3BDE85C
:1019C000FF9FF0B500230C4A491E11E000240AE0F5
:1019D000978A03FB05466F434F438519641C7D5D61
:1019E0001768A4B2BD55558AA542F1D85B1C9BB2BD
:1019F000948A9C42EAD8F0BDC000002029480168C2
:101A000041F0010101604168274A114041600168CD
:101A100021F4102121F080710160016821F48021FE
:101A20000160416821F4FE0141604FF41F018160B3
:101A30001E49C003086070471A4B586800F00C003C
:101A40001B4A1C4900280ED004280ED008280ED0AE
:101A50000A605868184AC0F30310105C0A6822FA3A
:101A600000F0086070470A60F3E70A60F1E7586821
:101A700000F470105A6802F480324FF0020C0CEB44
:101A800090403AB15A6812F4003F07D00B4A5043D5
:101A90000860DEE7094A50430860DAE7044A504329
:101AA0000860D6E7001002400000FFF808ED00E0F3
:101AB00000127A000C000020B66E000800093D00FC
:101AC000704770B5040009D0606A002540B12561F7
:101AD0006561A56294F8510040B10CE0012070BD31
:101AE0006068B0F5827FF4D0E561F2E784F8505089
:101AF0002046FEF7D6FB022084F8510020680168DA
:101B000021F040010160A088218900F4827001F475
:101B100004410843A18901F400610843217C01F0DC
:101B200002010843217D01F001010843218B01F4EA
:101B300000710843217F01F03801084394F8201018
:101B400001F080010843218D01F400510843216810
:101B50000860A069042101EA1040216848602068FB
:101B6000C16921F40061C1616565012084F85100FB
:101B7000002070BD704710B5040011D0022084F819
:101B800051002068016821F0400101602046FEF705
:101B9000B0FB0020606584F8510084F8500010BD4F
:101BA000012010BD2DE9F8431E46914688460446A3
:101BB000089D01F0F5F9401B351A01F0F1F90746CF
:101BC000FD480068C0F3CB30684338E0701C37D064
:101BD00001F0E6F9C01BA84203D215B1009860B32A
:101BE0002CE02068416821F0E00141606068B0F5B8
:101BF000827F0BD1A068B0F5004F02D0B0F5806FA6
:101C000004D12068016821F040010160A06AB0F5AC
:101C1000005F09D12068016821F40051016020684B
:101C2000016841F400510160012084F85100002056
:101C300084F850000320BDE8F8830025401E009082
:101C40002068816838EA010004D000214945BDD1EF
:101C50000020F0E70121F9E72DE9F84F044690F85C
:101C6000500000271D461646894601280DD04FF02A
:101C7000010B84F850B001F093F9804694F85100BC
:101C8000BA46012804D0022793E00220BDE8F88F6D
:101C9000B9F1000F73D0002E71D0032084F85100E9
:101CA000C4F854A0C4F83090A686E686C4F838A0DC
:101CB000A4F83CA0A4F83EA0C4F844A0C4F840A0F6
:101CC000A068B0F5004F09D12068016821F04001FB
:101CD00001602068016841F480410160206801686A
:101CE000490603D4016841F040010160E068B0F5A5
:101CF000006F606803D030B3012E24D041E008B1FA
:101D0000012E1CD1206B21680088C86006E0206885
:101D10008168890709D5216B0988C160206B801C07
:101D20002063E08E401EE08609E001F039F9A0EB67
:101D30000800A84202D3681C01D031E07DB3E08ED8
:101D40000028E4D120E0206B21680078087306E0C9
:101D500020688168890709D5216B09780173206B98
:101D6000401C2063E08E401EE0860AE001F018F976
:101D7000A0EB0800A84203D3681C02D010E017E0D3
:101D80006DB1E08E0028E3D142462946204601F09D
:101D9000B5F808B120206065A06818B106E0FFE73B
:101DA000032706E02068C16880680090606D00B17C
:101DB000012784F851B084F850A0384666E7F8B59A
:101DC000044640684FF48273984217D1A0684FF4DC
:101DD0008065B0F5004F01D0A8420FD12068066899
:101DE00026F0400606606068984207D1A068A842C5
:101DF00004D100920B460022012103E000920B4621
:101E0000002280212046FFF7CDFE002804D0606D1F
:101E100040F0200060650320F8BD2DE9F84F04462E
:101E200090F8500000270A9E1D4692468B464FF0C0
:101E3000010901280ED0012084F8500001F0B0F80B
:101E4000804694F85100616801280BD0B1F5827F7B
:101E500006D101E0022019E7A16809B9042801D0E0
:101E60000227C4E0BBF1000F27D0BAF1000F24D045
:101E70001DB394F85100042802D0052084F85100C5
:101E800000206065C4F838A0E587A587C4F830B0A5
:101E9000E586A5862064606420680168490603D44D
:101EA000016841F040010160E068B0F5006F6068D2
:101EB00005D0E8B3012D46D081E0012797E008B1B5
:101EC000012D39D1206B21680088C860206B801CEF
:101ED0002063E08E401EE0862EE02068816889073E
:101EE0000FD5E18E69B1B9F1010F0AD1216B0988D3
:101EF000C160206B801C2063E08E401EE0864FF0A6
:101F0000000920688168C9070CD0E18F51B1C06811
:101F1000A16B0880A06B801CA063E08F401EE0874F
:101F20004FF0010901F03CF8A0EB0800B04200E0DE
:101F300009E001D3701C52D1E08E0028CDD1E08F92
:101F40000028CAD141E0206B216800780873206B1B
:101F5000401C2063E08E401EE08630E020688168EF
:101F600089070FD5E18E69B1B9F1010F0AD1216B53
:101F700009780173206B401C2063E08E401EE086D0
:101F80004FF0000920688168C9070CD0E18F51B17A
:101F9000C068A16B0870A06B401CA063E08F401E5E
:101FA000E0874FF0010900F0FBFFA0EB0800B04212
:101FB00004D3701C03D012E00C0000207EB1E08E30
:101FC0000028CBD1E08F0028C8D1424631462046B8
:101FD00000F094FF28B101272020606507E0032767
:101FE00005E0A06818B92068C168806800900120E9
:101FF00084F85100002084F85000384646E62DE968
:10200000F84F044640680025984616460F464FF0A4
:10201000040BB0F5827F01D1A06888B194F850001C
:10202000012817D0012084F8500000F0B9FF814644
:1020300094F851004FF0000A01280DD0022581E0EC
:1020400084F851B013460A462046CDF80080FFF7C9
:10205000E4FE1BE6022019E6002F72D0002E70D09D
:1020600084F851B0C4F854A0A763A687E687C4F8E3
:1020700030A0A4F834A0A4F836A0C4F840A0C4F856
:1020800044A0A068B0F5004F09D12068016821F094
:10209000400101602068016821F4804101602068EE
:1020A0000168490603D4016841F040010160E0681D
:1020B000D8B139E020688168C90709D0007BA16BDD
:1020C0000870A06B401CA063E08F401EE0870CE00E
:1020D00000F066FFA0EB0901414503D3B8F1FF3FD3
:1020E00003D036E0B8F1000F33D0E08F0028E1D103
:1020F0001DE020688168C90709D0C068A16B08800D
:10210000A06B801CA063E08F401EE0870CE000F015
:1021100047FFA0EB0901414503D3B8F1FF3F03D0CE
:1021200017E0B8F1000F14D0E08F0028E1D14A4643
:1021300041462046FFF743FE08B120206065606DF0
:1021400000B10125012084F8510084F850A02846F0
:102150009CE50325F6E77047704738B50446F74815
:1021600045F6C0510068B0FBF1F06421484300908F
:1021700000F016FF024620680099A1B1491E0091A7
:1021800081688907F8D5416821F0A0014160642188
:10219000204600F0B3FE18B1606D40F0200060658D
:1021A000A06828B108E0616D41F020016165EAE7AF
:1021B0002068C16880680090012084F85100606D3B
:1021C0000028204602D0FFF7C7FF38BDFFF7C3FF46
:1021D00038BD016B026809781173016B491C0163FA
:1021E000C18E491EC186C18E002900D1B5E7704756
:1021F000016B02680988D160016B891C0163C18E83
:10220000491EC186C18E002900D1A6E7704730B5AE
:1022100090F850300024012B0BD0012380F850306F
:10222000002341B13AB190F85150012D05D002245C
:102230002FE0022030BD01242BE0032580F851500F
:10224000436501638286C28683638387C387036491
:10225000C16809B1BA4900E0BA4941648168B1F581
:10226000004F09D101680A6822F040020A60016843
:102270000A6842F480420A6001684A6842F0A0029B
:102280004A6001680A68520603D40A6842F04002B4
:102290000A6080F85030204630BD704738B504469B
:1022A0000068416821F06001416000F079FE02465B
:1022B00064212046FFF783FD18B1606D40F02000D7
:1022C0006065A06818B92068C16880680090012026
:1022D00084F85100606D0028204602D0FFF73CFFD3
:1022E00038BDFFF7DAFF38BD0168097B826B1170DA
:1022F000816B491C8163C18F491EC187C18F002931
:1023000000D1CBE770470168C968826B1180816B8F
:10231000891C8163C18F491EC187C18F002900D1EB
:10232000BCE77047704738B50446844845F6C0514D
:102330000068B0FBF1F064214843009000F030FEEB
:1023400002462068416821F020014160009888B170
:10235000401E0090206880688007F7D564212046E1
:1023600000F0CCFD18B1606D40F020006065A06801
:1023700028B108E0606D40F020006065EEE720685D
:10238000C16880680090616D012029B184F8510016
:102390002046FFF7E1FE38BD94F8511084F8510053
:1023A0000429204602D0FFF7BDFF38BDFFF775FFB7
:1023B00038BD016B026809781173016B491C016318
:1023C000C18E491EC186C18E002908D101684A68A4
:1023D00022F080024A60C18F002900D1A3E7704734
:1023E0000168097B826B1170816B491C8163C18F0D
:1023F000491EC187C18F002908D101684A6822F0AF
:1024000060024A60C18E002900D18CE77047016BE1
:1024100002680988D160016B891C0163C18E491E65
:10242000C186C18E002908D101684A6822F0800265
:102430004A60C18F002900D175E770470168C968FB
:10244000826B1180816B891C8163C18F491EC1879A
:10245000C18F002908D101684A6822F040024A6011
:10246000C18E002900D15EE77047F0B590F850505A
:102470000024012D0CD0012580F8505090F85150C7
:1024800000264768012D0BD0B7F5827F06D101E009
:102490000220F0BD87680FB9042D01D0022429E085
:1024A000A9B1A2B19BB190F85150042D02D00525DD
:1024B00080F85150466501638386C38682638387B3
:1024C000C387C16829B120490164204904E001247F
:1024D00010E01F4901641F49416401684A6842F0E5
:1024E000E0024A6001680A68520603D40A6842F0B2
:1024F00040020A6080F850602046F0BDF0B400242D
:102500008568134604261DB94268B2F5827F0DD056
:1025100090F85020012A0ED0012280F8502090F827
:1025200051700022012F17D0022443E080F851603F
:10253000F0BC0A4699E70220F0BC70470C0000206E
:10254000F1210008D32100083D2400080F240008D1
:10255000E1230008B323000871B16BB180F851602A
:10256000426581638387C38702638286C286426431
:10257000C16819B1FC4902E001241BE0FB49016478
:10258000B5F5004F09D101680B6823F040030B60DB
:1025900001680B6823F480430B6001684B6843F0CB
:1025A00060034B6001680B685B0603D40B6843F063
:1025B00040030B6080F850202046BDE710B5406A0C
:1025C00001684A6822F003024A60416D41F010013F
:1025D0004165012180F85110FFF7BEFD10BD38B5EF
:1025E0000546446A00F0DCFC024628680068800664
:1025F00023D42068416821F02001416020684168AF
:1026000021F0020141606421204600F077FC18B1FE
:10261000606D40F020006065A068002118B9206856
:10262000C26880680090E186012084F85100606DE6
:1026300018B12046FFF790FD38BD2046FFF78BFD0F
:1026400038BD704710B5406AFFF7FBFF10BD2DE99C
:10265000F041044690F850000026012809D00127D7
:1026600084F8507094F851000025012804D0022607
:102670004EE00220BDE8F08189B182B1032084F8E8
:10268000510065652163A286E286A56365642564C1
:10269000A587E587A068B0F5004F02D00BE00126C2
:1026A00036E02068016821F040010160206801687F
:1026B00041F480410160A16CAD48C862A16CAD4895
:1026C0008862A16CAC480863A06C4563E38E226805
:1026D000216B0C32A06C01F0AEFA38B1606D40F0A5
:1026E00010006065012684F8517011E020680168CF
:1026F000490603D4016841F0400101602068416847
:1027000041F0200141602068416841F002014160D0
:1027100084F850503046ADE770B50546446A00F085
:102720003FFC024628680068800626D4206841687D
:1027300021F020014160A06818B96068B0F5827F7F
:1027400016D02068416821F00101416064212046D3
:10275000FFF735FB08B1202060650020E0870120ED
:1027600084F85100606D40B12046FFF7F5FC70BD64
:102770002068416821F00301E7E72046FFF78DFD5F
:1027800070BD704710B5406AFFF7FBFF10BD70B514
:102790000546446A00F004FC02462868006880068A
:1027A0001ED42068416821F0200141606421204648
:1027B00000F0A4FB18B1606D40F020006065206857
:1027C000416821F0030141600020E086E08701209C
:1027D00084F85100606D18B12046FFF7BDFC70BD54
:1027E0002046FFF79FFD70BD704710B5406AFFF7A8
:1027F000FBFF10BD2DE9F041044690F85000002683
:1028000001280DD0012784F8507094F8510000255C
:10281000D4F804C001280ED0BCF5827F09D101E0B4
:10282000022027E7D4F808C0BCF1000F01D104282A
:1028300001D0022660E049B342B33BB394F85100A3
:10284000042802D0052084F8510065652163A38621
:10285000E386A263A387E3872564656494F8510047
:10286000042815D0E16C4548C8624548E16C88628F
:10287000E16C41480863E06C4563E38F2168A26B1B
:102880000C31E06C01F0D7F9E0B906E0012633E045
:10289000E16C3C48C8623C48E8E72068416841F088
:1028A00001014160A06CC562A06C8562A06C0563EB
:1028B000A06C4563E38E2268216B0C32A06C01F0A2
:1028C000BAF938B1606D40F010006065012684F8F7
:1028D000517011E020680168490603D4016841F095
:1028E000400101602068416841F02001416020689A
:1028F000416841F00201416084F850503046B9E629
:102900002DE9F041044600268068042318B9656863
:10291000B5F5827F0ED094F85050012D12D00127CA
:1029200084F8507094F851C00025BCF1010F0BD011
:10293000022664E084F851302046BDE8F041134699
:102940000A4657E7022095E601B3FAB184F8513000
:102950006565A163A287E28725646564A586E5862F
:10296000B0F5004F14D01DE007230008E92200084D
:1029700045260008DF250008BD250008EB270008D4
:102980008F2700088527000819270008012636E050
:102990002068016821F0400101602068016821F48D
:1029A00080410160E16CFE48C862E16CFD488862CC
:1029B000E16CFD480863E06C4563E38F2168A26B1E
:1029C0000C31E06C01F037F938B1606D40F0100067
:1029D0006065012684F8517011E02068016849069D
:1029E00003D4016841F0400101602068416841F072
:1029F000200141602068416841F00101416084F894
:102A00005050304636E6E94908B5096845F6C052E7
:102A1000B1FBF2F16422514300910168009A9AB12E
:102A2000521E00928A689207F8D50A6822F0400286
:102A30000A6001684A6822F0E0024A600168C968D9
:102A4000072180F8511008BD426D42F040024265F6
:102A5000EBE701684A6822F080024A6001680A6870
:102A600022F040020A60072180F8511070472DE9DA
:102A7000FC410446CD4845F6C05100260068B0FB35
:102A8000F1F064214843019000902068416821F0F2
:102A9000200141602068416809060CD5C449616481
:102AA000009900295AD0491E009194F85110072925
:102AB000F6D101990091416849060BD5BD492164C1
:102AC0000099E9B3491E009194F851100729F7D1F4
:102AD0000199009140684FF0400780074FF00005D2
:102AE00014D5A06C90B14563A06C01F0DCF800B186
:102AF00067652068416821F0020141602068009903
:102B000089B3491E009181688907F8D5206840681B
:102B1000C00711D0E06C78B14563E06C01F0C3F8F8
:102B200000B167652068016821F0400101602068FC
:102B3000416821F001014160E587E586606D00E0B4
:102B400012E040281AD065652068C168806800904E
:102B5000012084F851003046BDE8FC81616D41F0F0
:102B600040016165A5E704E0616D41F040016165E8
:102B7000AEE7606D40F040006065C7E70126E3E71F
:102B8000704738B5446A2068016821F0400101604F
:102B9000E06C002545632068416821F00101416037
:102BA00000F0FEF902466421204600F0A7F918B1B2
:102BB000606D40F040006065A06C10B1406B002873
:102BC0000FD1E587E586606D402800D065652068F7
:102BD000C16880680090012084F851002046FFF70A
:102BE000CFFF38BD08B5406A002145F6C053826C5E
:102BF00051636E4A1268B2FBF3F264235A430092A7
:102C00000268536823F002035360009AD2B1521E47
:102C10000092026892689207F7D5C26C12B1526BAB
:102C2000002A0ED1C187C186426D402A00D041657D
:102C30000168CA6889680091012180F85110FFF786
:102C40009FFF08BD426D42F040024265E5E72DE975
:102C5000FC410446554845F6C0510027006801264E
:102C6000B0FBF1F064214843019000902068416876
:102C700021F0200141602168486800060BD54C48CE
:102C800060640098F8B1401E009094F85100072845
:102C9000F7D101980090486840060BD5454820645C
:102CA0000098A8B1401E009094F851000728F7D171
:102CB00001980090A06C002580B1496889070CD567
:102CC0003D4941630AE0606D40F040006065E0E727
:102CD000606D40F040006065EAE74563E06C38B144
:102CE00021684968C90702D03449416300E045635F
:102CF000206840684FF0400880070AD5A06C40B1BA
:102D000000F0F4FF20B1A06C4563C4F8548000E0EB
:102D1000002620684068C00708D0E06C30B100F0A1
:102D2000E5FFA0B1E06C4563C4F854807EB1E5874F
:102D3000E586606D40280CD065652068C1688068B4
:102D40000090012084F851002046FFF719FF384613
:102D500002E70127F1E790F8501001290CD001217A
:102D600080F8501001684A6822F003024A6000218E
:102D700080F85010084670470220704790F85010B5
:102D800001291DD0012180F8501001684A6842F0E5
:102D900003024A60002180F8501008467047000086
:102DA0008527000819270008BD2500080C00002011
:102DB000532A0008072A0008E52B0008832B000887
:102DC0000220EBE770B50446806C002538B100F0B6
:102DD0006AFF20B1606D40F0100060650125E06C75
:102DE00038B100F060FF20B1606D40F01000606508
:102DF00001252068416821F003014160012084F829
:102E00005100284670BD10B5406A0021C187C186B7
:102E1000FFF7A2F910BD38B5044600684268816822
:102E2000C9434B0606D5CB0704D1D3435B0601D477
:102E3000216C05E08B0708D4D3431B0605D4616CD5
:102E400001B02046BDE8304008478B0601D54B064F
:102E500046D4D3439B0643D44B060AD494F851304E
:102E6000032B3ED0636D43F004036365C36883683E
:102E70000093890609D4616D41F0010161658168A3
:102E80000091016821F040010160606D002827D0A9
:102E90002068416821F0E0014160012084F8510080
:102EA000900722D02068416821F0030141601B4D4A
:102EB000E06C40B14563E06C00F018FF18B1606D44
:102EC00040F040006065A06C002809D04563A06C0C
:102ED00000F00CFF002803D0606D40F040006065FA
:102EE00038BDC1688068009038BD2046FFF734F9CE
:102EF00038BD90F8510051E7406D4FE738B50B46AB
:102F00000092044600228021FEF74CFE002804D0E7
:102F1000606D40F020006065032038BD072E00087A
:102F2000704770B5564D04464FF47A712878B1FB5E
:102F3000F0F054490968B1FBF0F001F02AFB48B900
:102F4000102C07D200222146501E01F0D8FA002092
:102F50006C6070BD012070BD4B4810B5016841F038
:102F600010010160032001F0BDFA0020FFF7D9FF36
:102F7000FDF75AFA002010BD7047444810B54FF0D5
:102F8000FF31C16000220261C160C260FFF7F4FF3F
:102F9000002010BD3A488168027811448160704772
:102FA00037488068704736484068704770B5344C81
:102FB0000146002025788D4206D021706068FFF719
:102FC000B0FF002800D0257070BD2D4800787047F4
:102FD00070B50446FFF7E4FF0546601C02D02848A0
:102FE00000780444FFF7DCFF401BA042FAD370BD19
:102FF0004FF0E020016921F00201016170474FF0BC
:10300000E020016941F002010161704720487047EA
:1030100020480068000C70471E480068C0F30B0091
:1030200070471D48006870471B48001D00687047C6
:1030300019480830006870471648416841F001019E
:10304000416070471348416821F0010141607047B9
:103050001048416841F00201416070470D484168E5
:1030600021F00201416070470A48416841F00401C3
:10307000416070470748416821F004014160704792
:10308000100000200C000020002002400010024030
:1030900000070101002004E0E8F7FF1F2DE9F041DF
:1030A000FFF77EFFFE4C0546206840F001002060DF
:1030B00005E000BFFFF774FF401B022843D82068DB
:1030C0008007F7D5206820F0F80040F080002060ED
:1030D000FFF766FF00250646656041F2883704E089
:1030E000FFF75EFF801BB8422DD8606810F00C0F10
:1030F000F6D1ED49EB480860EC480068FFF711FF96
:1031000010B10120BDE8F081FFF74AFF06462068B4
:1031100020F08070206004E0FFF742FF801B02284F
:1031200011D820688001F7D46560FFF739FF0646A3
:10313000206820F41020206007E000BFFFF730FF78
:10314000801B642801D90320DCE720688003F5D4C4
:10315000206820F480202060606A40F08070606207
:10316000A5600020CEE72DE9F84F04006FD020784D
:10317000CB4DC00748D06868C0F38100012807D054
:103180006868C0F38100022809D16868C00306D5C9
:103190002868800338D560680028E7D034E060688C
:1031A000B0F5803F0BD010B1B0F5A02F11D028683A
:1031B00020F480302860286820F4802002E028680D
:1031C00040F480302860606888B1FFF7E9FE064669
:1031D00009E0286840F480202860F0E7FFF7E0FE6F
:1031E000801B642873D828688003F7D50CE0FFF7AC
:1031F000D7FE064605E000BFFFF7D2FE801B64281D
:10320000F0D828688003F7D42078A94E80074FF0C3
:1032100001094FF0000839D5686810F00C0F07D08D
:103220006868C0F38100022809D16868C00306D429
:103230002868800714D52069012808D110E020698A
:10324000B0B1C6F80090FFF7ABFE074605E00AE113
:10325000FFF7A6FEC01B0228C4D828688007F7D550
:103260002868616920F0F80040EAC10028600DE09C
:10327000C6F80080FFF794FE074604E0FFF790FED3
:10328000C01B022823D828688007F7D420780007BD
:103290002CD58848A169D9B1C0F80090FFF780FE0D
:1032A000074604E0FFF77CFEC01B02280FD8686ABF
:1032B0008007F7D57C484FF4FA510068B0FBF1F075
:1032C000009000BF0098411E0091FAD20EE080E00D
:1032D000C0F80080FFF764FE074604E0FFF760FED9
:1032E000C01B022875D8686A8007F7D42078400789
:1032F00060D5E8690027C00008D4E86940F0805034
:10330000E861E869012700F0805000906A48016890
:10331000C90513D40168834641F480710160FFF749
:103320003FFE824606E000BFFFF73AFEA0EB0A0030
:1033300064284ED8DBF80000C005F5D5E068012808
:103340000AD008B1052813D0286A20F001002862AD
:10335000286A20F0040002E0286A40F00100286298
:10336000E06841F2883B98B1FFF71AFE82460BE015
:10337000286A40F004002862EEE700BFFFF710FE65
:10338000A0EB0A0159455AD8286A8007F6D50CE007
:10339000FFF706FE824605E0FFF702FEA0EB0A01FA
:1033A00059454CD8286A8007F6D41FB1E86920F047
:1033B0008050E861E06988B36968C1F3810102293E
:1033C00044D00228C6F8608004D0FFF7E9FD044627
:1033D00038E034E0FFF7E4FD074604E0FFF7E0FDE6
:1033E000C01B02282BD828688001F7D4206AB0F5CA
:1033F000803F05D16868A16820F400300843686008
:10340000D4E908010843696821F47411084368602D
:10341000C6F86090FFF7C4FD044606E025E000BF53
:10342000FFF7BEFD001B022809D828688001F7D5E8
:103430001BE000BFFFF7B4FD001B022802D90320E8
:10344000BDE8F88F28688001F4D40EE00128F7D099
:103450006868226A00F48031914204D1616A00F404
:103460007010884201D00120EAE70020E8E713A1AC
:1034700085B00FC98DE80F0014A0094A00680490B8
:103480005168084801F00C03042B29D0082B27D1E0
:10349000C1F38343C9031DF8030023D5516817E026
:1034A0000010024000127A000C00002014000020DE
:1034B00000004242800442420070004002030405C2
:1034C000060708090A0B0C0D0E0F10100102000070
:1034D000C1F3404104AA515CA04A5043B0FBF1F053
:1034E00005B070479E494843FAE72DE9F0470F467B
:1034F000050062D09B4E306800F00700B84209D248
:10350000306820F0070038433060306800F0070072
:10351000B84252D12868944C810712D5400703D590
:10352000606840F4E06060602878000703D5606858
:1035300040F4605060606068A96820F0F0000843C3
:1035400060602878C00729D06868012810D02168F9
:10355000022810D0890700292FDA616821F00301C1
:1035600001436160FFF71CFD804641F288390EE09F
:1035700021688903EFE78901EDE700BFFFF710FD40
:10358000A0EB0801494502D90320BDE8F087606837
:10359000696800F00C00B0EB810FEFD1306800F0EB
:1035A0000700B8420BD9306820F00700384330607C
:1035B000306800F00700B84201D00120E5E7287824
:1035C000400705D56068E96820F4E0600843606062
:1035D0002878000706D56068296920F4605040EA21
:1035E000C1006060FFF743FF6168604AC1F30311E7
:1035F000515CC8405E4908605E480068FFF791FC76
:103600000020C2E730B585B0002002900220019072
:1036100003200390544C4FF480700090A0690D4635
:1036200040F00400A061A069694600F00400049025
:10363000514800F0A7F8606820F0E060284360601F
:1036400005B030BD4D490120C86470474B4900208A
:10365000C86470474648006870474548424900685A
:103660004968474AC1F30221515CC840704740484D
:103670003D4900684968424AC1F3C221515CC840D3
:10368000704710B50F21016037490A6853034FF0A6
:10369000000202D54FF4A02304E00B68DB0303D53E
:1036A0004FF48033436000E042604B6803F4003322
:1036B00083600B68DC074FF0010301D0036100E079
:1036C00002610C68C4F3C40444610C6A640702D547
:1036D0000524C46005E00C6AE40701D0C36000E083
:1036E000C2604C6AE40701D0836100E082610A682D
:1036F000D20102D50222C26100E0C3614A6802F42D
:1037000080320262496801F47011416210BD0F22DB
:103710000260154A536803F003034360536803F0E3
:10372000F0038360536803F4E063C36052684FF4AE
:10373000E06303EAD20202610A48006800F0070071
:1037400008607047704710B5074CA068000603D5A5
:10375000FFF7F8FF8020A07210BD000000127A0071
:1037600000093D000020024000100240B66E000833
:103770000C0000201400002000080140000042421C
:10378000C66E00082DE9F84FDFF82493002409F1F4
:10379000040A0AF1040B23460F270BF1040ED1E0B3
:1037A0000125A54006EA0502AA4276D1DFF804C346
:1037B0004E68A6EB0C0866452BD00DDC032E34D0EA
:1037C00005DC36B3012E19D0022E2FD11BE0112EAD
:1037D00016D0122E2AD119E0B8F5881F19D006DCB0
:1037E000B8F5803F15D0B8F5801F1FD111E0B8F5AE
:1037F000001F0ED0B8F5041F18D10AE0CB6815E001
:10380000CB681B1D12E0CB6808330FE0CB680C338C
:103810000CE08B682BB1012B4FF0080303D04561FE
:1038200004E0042302E0056100E00023FF2A01D840
:10383000064601E000F104064FEA840501D9A5F12E
:103840002005D6F8008007FA05FC28EA0C0803FAE0
:1038500005F548EA0508C6F800804D68ED0070D50A
:10386000954DAE6946F00106AE61AD6924F00306E0
:1038700005F001050095914D06EB050CDCF80850AC
:10388000A607360F07FA06F825EA0805DFF83082A2
:10389000404503D14FF0000825E052E0DFF82482D4
:1038A000404502D14FF001081DE0DFF81C82404581
:1038B00002D14FF0020816E0DFF81082404502D135
:1038C0004FF003080FE0DFF80882404502D14FF0C7
:1038D000040808E0DFF8FC81404502D14FF00508FC
:1038E00001E04FF0060808FA06F848EA0508CCF8A7
:1038F00008804D68D9F80060ED034D4601D51643A8
:1039000000E096432E604D68DAF80060AD0355463E
:1039100001D5164300E096432E604D68DBF8006049
:10392000ED025D4601D5164300E096432E604D68DA
:10393000DEF80060AD02754601D5164300E09643FF
:103940002E60641C0A681646E2407FF429AFBDE889
:10395000F88F2DE9F0430023584F0F2574E0012222
:103960009A400A406ED023F00304E619D6F8088086
:103970009C074FEA147C05FA0CF909EA0804DFF801
:103980004081404502D14FF0000824E0DFF8348147
:10399000404502D14FF001081DE0DFF82C81404581
:1039A00002D14FF0020816E0DFF82081404502D135
:1039B0004FF003080FE0DFF81881404502D14FF0C7
:1039C000040808E0DFF80C81404502D14FF00508FB
:1039D00001E04FF0060808FA0CF8A04515D1D6F81A
:1039E00008C02CEA090CC6F808C0314E346894436C
:1039F0003460341D266896432660241D266896434D
:103A00002660241D266896432660FF2A01D80646B4
:103A100001E000F104064FEA830401D9A4F1200477
:103A2000D6F800C005FA04F82CEA080C4FF0040898
:103A300008FA04F84CEA080CC6F800C0C46824EA86
:103A40000204C46003F1010331FA03F287D1BDE837
:103A5000F0838068084000D0012070470AB10161FE
:103A600070470904FBE7C26821EA02030A4043EAFF
:103A700002410161704708B541F4803200928261D1
:103A8000816100998161816900918069C00301D5DC
:103A9000002008BD012008BD7047054910B514314C
:103AA0000A68024202D00860FFF7F6FF10BD00006E
:103AB000000401400000111000100240000001400D
:103AC00000080140000C01400010014000140140BA
:103AD00000180140001C014030B560B1F74B02688E
:103AE00014219A4209D2F64B1344B3FBF1F1890039
:103AF0000164F4490AE0012030BDF04B5B421344FD
:103B0000B3FBF1F189000164EC490839C16302217A
:103B100080F82110136843F6F0718B43F0E901142B
:103B20002143D0E902452C432143046921434469E0
:103B3000214384692143194311600021416301221B
:103B400042770177084630BD10B5D0B101680A68E8
:103B500022F001020A6002680021116002685160CF
:103B6000026891600268D160D44C02681423A242BA
:103B700009D2D34C2244B2FBF3F292000264D14A40
:103B80000AE0012010BDCD4C64422244B2FBF3F2A6
:103B900092000264C94A083AC26390F84030012298
:103BA0009A40C36B5A608162C16201634163816361
:103BB00080F8211080F82010002010BD30B590F85A
:103BC00040500124AC40C56B6C600468636043687E
:103BD000102B036803D099600068C26030BD9A6002
:103BE0000068C16030BD70B5044690F82000002523
:103BF00001280CD0012084F8200094F821600020D6
:103C0000012E06D084F820000225284670BD02202F
:103C100070BD022684F82160A0632068066826F043
:103C2000010606602046FFF7C9FF2068016841F0E1
:103C300001010160E9E770B5044690F82000002515
:103C400001280CD0012084F8200094F82160002085
:103C5000012E06D084F820000225284670BD0220DF
:103C600070BD022684F82160A0632068066826F0F3
:103C7000010606602046FFF7A1FFE06A00282068E1
:103C8000016802D041F00E0106E021F0040101605C
:103C90002068016841F00A0101602068016841F074
:103CA00001010160D9E710B590F821100022022926
:103CB00005D00421816380F82020012010BD016817
:103CC0000B6823F00E030B6001680B6823F00103FF
:103CD0000B6090F84030C46B012101FA03F363607C
:103CE00080F8211080F82020104610BD2DE9F05FEB
:103CF00090F821100024022903D0042181630124BB
:103D000085E001680A6822F00E020A6001680A680C
:103D100022F001020A606B4E6A4F8036B215DFF85E
:103D2000A4C1DFF8A091DFF89CA1DFF898B1DFF81B
:103D300094E101680837130115020CF11C0C09F11C
:103D400030090AF1440A0BF1580B0EF16C0E4FF4D6
:103D50008018B14227D9B9420ED0614512D04945E9
:103D60001DD0514518D0594518D0714501D1424652
:103D700015E0524EB14201D1012210E04F4E1436EF
:103D8000B14201D110220AE04C4E2836B14206D091
:103D90004A4A3C32914201D11A4600E02A4647493C
:103DA000091F0A602AE0B94213D0614517D049457E
:103DB00022D051451DD059451DD0714501D14246F3
:103DC0001AE0B14202D14FF0807215E03B4EB14291
:103DD00001D1012210E0394E1436B14201D1102236
:103DE0000AE0364E2836B14206D0344A3C3291427F
:103DF00001D11A4600E02A4632494A60012180F882
:103E00002110002180F82010416B01B18847204625
:103E1000BDE8F09F2DE9F74F044690F8210082B0ED
:103E2000022805D00420A063002084F82000FCE0D4
:103E300020680168890603D54FF48070A063F4E020
:103E4000204D204E03991C353036DFF87880DFF89E
:103E50007490DFF870A000291B494FF4806B08F1C3
:103E6000440809F158090AF16C0A03D088423DD18F
:103E7000042757E0884201D1022753E0A84201D12C
:103E800020274FE0B04202D14FF400774AE040458E
:103E900003D100BF4FF4005744E0484503D100BFB1
:103EA0004FF400373EE0504502D14FF4001739E09F
:103EB00005497831884209D1870433E0080402407B
:103EC000F8FFFDBF0000024008000240FB498842A5
:103ED000D2D0FA4914318842D2D0F84928318842E8
:103EE000D2D0F6493C318842DAD1D3E7A84201D199
:103EF000402717E0B04201D15F4613E0404502D1B0
:103F00004FF480470EE0484503D100BF4FF48027AF
:103F100008E0504502D14FF4800703E0E8498842A9
:103F200004D1C704FFF73CF8009082E0E3498842DF
:103F30009ED0E24914318842DAD0E04928318842E3
:103F4000DAD0DE493C318842E0D1D9E7884228D92D
:103F5000DA4908390A68DA497839884210D0A84223
:103F600010D0B04214D0404515D0484516D0504529
:103F700003D100BF4FF4000027E0D049884234D17C
:103F8000082022E0802020E0CC492831884231D12D
:103F90004FF4006019E04FF4004016E04FF40020A9
:103FA00013E0C74A803A1268C54B783B9842E7D085
:103FB000A842E7D0B042EBD04045ECD04845EDD028
:103FC0005045D7D08842D8D11806024217D094F86D
:103FD0004010E26B012000FA01F1516054F8381FE3
:103FE00041F0010144F818191CE0B4491431884229
:103FF000CAD1C7E7B1493C318842CFD1CBE7049859
:10400000401C16D0049830B1FEF7CAFF0099411A3F
:10401000049881420DD954F8380F40F0200044F83C
:1040200018090120607000202070012005B0BDE853
:10403000F08FA3492068884202D9A04A083A01E0DB
:104040009F4A803A12683A4280D09C4A0399121FD4
:1040500000299B4911D0884275D9994978398842FD
:104060007BD0A8427FD0B04270D040456FD0484549
:104070006ED050456ED1C80486E088422CD9904954
:10408000783988420ED0A84212D0B04216D04045AE
:104090001BD048451CD0504501D188041AE08749FF
:1040A000884201D1022015E084491431884201D1AF
:1040B00020200FE081492831884202D14FF400705E
:1040C00008E07E493C31884202D14FF4005001E0C3
:1040D0004FF40030106032E0794A783A904213D0C1
:1040E000A84217D0B0421BD0404520D0484521D02F
:1040F000504501D190041FE0884202D14FF000707A
:104100001AE06E49884201D1022015E06B49143152
:10411000884201D120200FE068492831884202D12D
:104120004FF4007008E065493C31884202D14FF4F9
:10413000005001E04FF400306149803948600120AF
:1041400084F8210054E021E007E00CE011E016E0E3
:1041500018E0FFE75949884201D1042014E057498B
:104160001431884201D140200EE054492831884260
:1041700001D1584608E051493C31884202D14FF400
:10418000804001E04FF48020106031E04C4A783AE2
:10419000904213D0A84217D0B0421BD040451FD048
:1041A000484520D0504501D1D0041EE0884202D1BC
:1041B0004FF0806019E04149884201D1042014E0A9
:1041C0003E491431884201D140200EE03B4928315C
:1041D000884201D1584608E038493C31884202D132
:1041E0004FF4804001E04FF4802035498039486029
:1041F000002084F8200019E72DE9F05FC16B0A6800
:1042000001680B68046C4FF0040808FA04F82D4D9F
:104210002D4E2E4FDFF8B8C0DFF8B890DFF8B8A009
:10422000DFF898B0DFF8B4E018EA020F74D05FEA64
:10423000437871D50A68920603D40A6822F0040212
:104240000A604FF48062DFF878800168130114027D
:10425000414524D9A9420DD0B1420FD0B9421AD05C
:10426000614515D0494515D0514501D1120312E0E1
:10427000594501D104220EE0714501D140220AE0E6
:10428000164D1435A94206D0144A2832914201D164
:104290001A4600E022460949091F0A6039E0A9428E
:1042A00025D0B14227D0B94231D061452CD0494503
:1042B0002CD0514514D14FF4800228E0080402406C
:1042C00080000240080002401C0002403000024012
:1042D00044000240580002406C0002401C040240AE
:1042E000414502D14FF0806211E0594501D10422CD
:1042F0000DE0714501D1402209E0784DA94206D078
:10430000764A1432914201D11A4600E0224674499D
:104310004A60C16A6FE0FFE74FF0020808FA04F84C
:1043200018EA020F6CD05FEA837869D50A689206B2
:1043300006D40A6822F00A020A60012180F82110DE
:10434000DFF89C814FF40072016808F180081301C6
:104350001402414523D9A9420DD0B1420FD0B94230
:1043600019D0614514D0494514D0514501D11203EB
:1043700011E0594501D102220DE0714501D1202201
:1043800009E0564DA94206D0544A1432914201D157
:104390001A4600E0224651492C390A6027E0A9421A
:1043A00013D0B14215D0B9421FD061451AD049454A
:1043B0001AD0514502D14FF4001216E0414502D106
:1043C0004FF0007211E0594501D102220DE0714514
:1043D00001D1202209E0414DA94206D03F4A1432C2
:1043E000914201D11A4600E022463D494A6000212F
:1043F00080F82010816A00291BD0BDE8F05F0847D3
:104400000825A540154214D01A0712D50A6822F0D3
:104410000E020A6090F84020C36B012101FA02F2FB
:104420005A60816380F82110002180F82010016B10
:10443000E1E7EDE410B590F820400023012C07D00F
:10444000012480F8204090F82140012C02D008E09F
:10445000022010BD59B101290BD002290BD003292C
:104460000BD00123002180F82010184610BD826275
:10447000F8E7C262F6E70263F4E74263F2E710B5D9
:1044800090F820200023012A08D0012280F8202063
:1044900090F821400022012C02D014E0022010BD2F
:1044A000052910D2DFE801F0030507090B0082623D
:1044B0000AE0C26208E0026306E0426304E082624E
:1044C000C2620263F9E7012380F82020184610BD7C
:1044D00090F821007047806B704700003004024064
:1044E000000002407B4900F0070208684FF6FF0316
:1044F000184040EA0220784A104308607047F0B440
:10450000744B1B680C46C3F30223C3F10705042D4B
:1045100000D90425191D072901D2002300E0DB1E64
:10452000012606FA05F1491E214099409E40761E5B
:1045300016403143F0BC00F0BDB8002809DB00F0A4
:104540001F02012191404009800000F1E020C0F8E5
:104550000011704700280DDB00F01F02012191407F
:104560004009800000F1E020C0F88011BFF34F8FB8
:10457000BFF36F8F7047BFF34F8F56480168564A9D
:1045800001F4E061121D11430160BFF34F8F00BFC2
:10459000FDE710B5401EB0F1807F01D3012010BDB2
:1045A0004FF0E02460610F21601700F083F80020D5
:1045B000A06107202061002010BD46480068C0F3BC
:1045C0000220704770B5002804DB00F1E02090F86D
:1045D000000405E000F00F0000F1E02090F8140D59
:1045E000040901F00700C0F10705042D00D90425D6
:1045F000011D072901D2002000E0C01E012124FA7C
:1046000000F601FA05F56D1E2E408140491E21403D
:104610001660196070BD002809DB00F01F0201213F
:1046200091404009800000F1E020C0F8001270477E
:1046300000280DDB4109890001F1E021D1F80012C9
:1046400000F01F0201209040014201D0012070477C
:1046500000207047002809DB00F01F020121914073
:104660004009800000F1E020C0F880127047002867
:104670000DDB4109890001F1E021D1F8001300F0C0
:104680001F0201209040014201D00120704700200C
:1046900070474FF0E0210428086903D020F004009F
:1046A0000861704740F00400FAE7704710B5FFF763
:1046B000FCFF10BD0907090E002804DB00F1E02013
:1046C00080F80014704700F00F0000F1E02080F83F
:1046D000141D70470CED00E00000FA0570B50446AB
:1046E00000680169E26821F44051114301612169C8
:1046F000A0680843616908432168CA6841F20C63F5
:104700009A430243CA6020684169A26921F440715A
:1047100011434161FC492068884202D1FEF7A7FF9E
:1047200001E0FEF79AFF00EBC00101EB00126068A8
:1047300064218000B2FBF0F3B3FBF1F36FF01806D5
:104740007343B2FBF0F5B2FBF0F605EB83053223C1
:1047500003EB0515B5FBF1F5B6FBF1F605F0F00539
:1047600005EB0615B2FBF0F6B2FBF0F0B0FBF1F092
:104770006FF01802504306EB800003EB0010B0FB13
:10478000F1F0216800F00F002844886070BD704788
:1047900070B5040004D094F83900002510B106E08B
:1047A000012070BD84F838502046FBF7D1FD24204D
:1047B00084F839002068C16821F40051C1602046A6
:1047C000FFF78CFF2068016921F4904101612068A6
:1047D000416921F02A0141612068C16841F400511A
:1047E000C160E563202084F8390084F83A00002095
:1047F00070BD70B5040004D094F83900002510B1E4
:1048000006E0012070BD84F838502046FBF7A0FD7B
:10481000242084F839002068C16821F40051C16067
:104820002046FFF75BFF2068016921F49041016198
:104830002068416921F0220141612068416941F00D
:10484000080141612068C16841F40051C160E5631D
:10485000202084F8390084F83A00002070BD70B53B
:104860000E46040004D094F83900002510B106E08B
:10487000012070BD84F838502046FBF769FD2420E4
:1048800084F839002068C16821F40051C1602046D5
:10489000FFF724FF2068016921F4006101612068AD
:1048A000416921F02A0141612068016941F4804198
:1048B00001612068016921F020010161206801691E
:1048C000314301612068C16841F40051C160E56372
:1048D000202084F8390084F83A00002070BD2DE9CA
:1048E000F04116460F46040004D094F83900002524
:1048F00018B107E00120BDE8F08184F83850204667
:10490000FBF726FD242084F839002068C16821F4D3
:104910000051C1602046FFF7E1FE2068016921F4E3
:10492000904101612068416921F02A0141612068BC
:10493000016921F00F0101612068016939430161BA
:104940002068C16821F40061C1602068C1683143FA
:10495000C1602068C16841F40051C160E563202056
:1049600084F8390084F83A000020C4E7704710B595
:10497000040013D0242084F839002068C16821F491
:104980000051C1602046FBF715FD0020E06384F86C
:10499000390084F83A0084F8380010BD012010BDB9
:1049A0002DE9F041984617460E460446069D1CE048
:1049B000681C1AD02DB1FEF7F3FAA0EB0800A8424C
:1049C00013D92068C16821F4D071C16020684169A1
:1049D00021F001014161202084F8390084F83A0077
:1049E000002084F83800032085E72068006836EA54
:1049F000000004D00020B842DAD000207BE701207C
:104A0000F9E72DE9F843044690F839001F461646A9
:104A10000D4620284BD1C5B1BEB194F8380001280D
:104A200045D0012084F838004FF00008C4F83C80DD
:104A3000212084F83900FEF7B3FAA6848146E68483
:104A4000A068B0F5805F03D004E00120BDE8F883E2
:104A5000206920B12E46002584F838800EE000261B
:104A6000FAE780212046FFF79BFFA0B9AEB116F808
:104A7000010B21684860E08C401EE084E08C4B46CE
:104A80004FF0000200970028EBD14FF04001204684
:104A9000FFF786FF30B10320D8E735F8020BC0F3EB
:104AA0000800E6E7202084F839000020CEE7022045
:104AB000CCE72DE9F84F044690F83A009A4616469E
:104AC0000D46202856D1F5B1EEB194F838000128F2
:104AD00050D0012084F838000027E763222084F8B2
:104AE0003A00FEF75DFAA6858146E685A0684FF498
:104AF0008058404501D1206958B12E465FF000052D
:104B000084F838702BE001E0003801400120BDE856
:104B1000F88F0026F4E74B46002220212046CDF8EE
:104B200000A0FFF73DFF08B10320F0E726B1A06821
:104B300040451CD038B108E020684068C0F3080048
:104B400025F8020B08E0206988B12068406800F071
:104B50007F0000BF06F8010BE08D401EE085E08D70
:104B60000028D8D1202084F83A000020CFE7206820
:104B70004068EFE70220CAE790F83930202B18D1BF
:104B8000A9B1A2B190F83830012B12D00162828411
:104B9000C2840021C163212280F8392080F83810B6
:104BA0000068C16841F08001C160002070470120A9
:104BB00070470220704790F83A30202B22D1F9B18B
:104BC000F2B190F83830012B1CD081628285C28509
:104BD0000021C163222280F83A2080F83810016851
:104BE000CA6842F48072CA6001684A6942F00102F0
:104BF0004A610068C16841F02001C160002070472F
:104C00000120704702207047704770B5446A2068E1
:104C1000406994F83910C0F3C0100025212904D14F
:104C200018B1E584204600F07BFC2068406994F8C8
:104C30003A10C0F38010222904D118B1E58520462E
:104C400000F060FCE06B40F01000E0632046FFF7EE
:104C5000DBFF70BD704710B5406AFFF7FBFF10BD6A
:104C6000704710B50146406A0968096889060CD486
:104C70000021C18401684A6922F080024A6100680B
:104C8000C16841F04001C16010BDFFF7E9FF10BDF0
:104C900070B5044690F83900202830D169B362B36A
:104CA00094F8380001282AD0012084F838002162C5
:104CB000A284E2840025E563212084F83900236B77
:104CC000F9489862236BF948D862236BF848186357
:104CD000206B134645632668206B321DFEF7ABFF41
:104CE00021686FF04000086084F8385020684169FE
:104CF00041F080014161002070BD012070BD0220A3
:104D000070BD704710B5406AFFF7FBFF10BD7047DC
:104D100010B50146406A09680968890613D4002164
:104D2000C1850168CA6822F48072CA6001684A6954
:104D300022F001024A6101684A6922F040024A6198
:104D4000202180F83A10FFF7E2FF10BDF8B50446C5
:104D500090F83A0020283CD1C1B3BAB394F8380097
:104D6000012836D0012084F83800A162A2850025F0
:104D7000E563222084F83A00636BCE489862636B47
:104D8000CD48D862636BCA481863606B13464563AD
:104D90000846666B216802463046091DFEF74BFF48
:104DA000206801684168009184F83850C16841F476
:104DB0008071C1602068416941F001014161206852
:104DC000416941F0400141610020F8BDFFE7012049
:104DD000FBE70220F9E790F8381001290BD00121F8
:104DE00080F8381001684A6990F83930C2F3C0126F
:104DF000212B02D006E0022070471AB14A6922F046
:104E000080024A6101684A6990F83A30C2F3801220
:104E1000222B0ED16AB1CA6822F48072CA6001687E
:104E20004A6922F001024A6101684A6922F040029F
:104E30004A61002180F838100846704708B590F89C
:104E40003810012907D0012180F8381090F8391066
:104E5000212902D006E0022008BD01684A6942F01B
:104E600080024A6190F83A100022222911D101688B
:104E70000B684B680093CB6843F48073CB60016888
:104E80004B6943F001034B6101684B6943F04003F8
:104E90004B6180F83820002008BD10B5044600683A
:104EA000416994F83920C1F3C011212A0BD151B1C5
:104EB000416921F080014161206B08B1FEF7F3FEEA
:104EC000204600F02DFB2068416994F83A20C1F398
:104ED0008011222A0BD151B1416921F04001416179
:104EE000606B08B1FEF7DFFE204600F00BFB0020F0
:104EF00010BD70B504460068C16821F4F071C1604E
:104F00002068416921F001014161206841694FF049
:104F1000100609064FF000050FD5416921F0800108
:104F20004161206B48B14563206BFEF7BCFE20B1A8
:104F3000206BFFF7D0FA20281DD020684169490670
:104F40000FD5416921F040014161606B48B1456373
:104F5000606BFEF7A8FE20B1606BFFF7BCFA20285B
:104F600009D0E584E585E563202084F83A0084F8DB
:104F70003900002070BDE663032070BD70B50446A3
:104F80000068C16821F0C001C160206841694FF02C
:104F9000000509060FD5416921F080014161206BB0
:104FA00048B14563206BFEF77EFE20B1206BFFF712
:104FB00092FA202805D0E584202084F839000020CA
:104FC00070BD1020E063032070BD70B5044600681A
:104FD000C16821F49071C1602068416921F001012C
:104FE0004161206841694FF0000549060FD54169CC
:104FF00021F040014161606B48B14563606BFEF791
:1050000052FE20B1606BFFF766FA202805D0E585D7
:10501000202084F83A00002070BD1020E0630320B7
:1050200070BD704710B5406A0021426B5163026B3E
:1050300012B1526B002A09D1C184C185C1632021FC
:1050400080F8391080F83A10FFF7EBFF10BD10B56B
:10505000406A0021026B5163426B12B1526B002A0D
:1050600009D1C184C185C163202180F8391080F83D
:105070003A10FFF7D6FF10BD70B504460068012650
:10508000C16821F4F071C1602068416921F001011B
:105090004161206B0025A0B12168496909060FD53F
:1050A000064941630DE00000634C0008574C0008BE
:1050B0000B4C0008114D0008054D00084F5000082A
:1050C0004563606B38B121684969490602D5F849E2
:1050D000416300E045632068416909060CD54169D8
:1050E00021F080014161206B30B1FEF7FFFD10B16E
:1050F000206B456300E000262068416949060BD516
:10510000416921F040014161606B28B1FEF7EEFD7D
:1051100070B1606B456300E056B1E584E585E563F9
:10512000202084F8390084F83A002046FFF779FF00
:10513000002070BD704710B5406A0021C184202155
:1051400080F83910FFF7F6FF10BD10B5044600686F
:10515000C16821F0C001C160206841694FF02002A0
:105160000B064FF000010FD5436923F08003436124
:10517000206B48B1CF494163206BFEF7B7FD48B1C2
:10518000206B416B884705E0E18484F83920204694
:10519000FFF7D0FF002010BD704710B5406A002116
:1051A000C185202180F83A10FFF7F6FF10BD10B539
:1051B00004460068C16821F49071C16020684169AB
:1051C00021F001014161206841694FF020024B0646
:1051D0004FF000010FD5436923F040034361606B3A
:1051E00048B1B5494163606BFEF780FD48B1606B23
:1051F000416B884705E0E18584F83A202046FFF7B7
:10520000CBFF002010BD10B5406A0021C185C184CC
:10521000FFF7FAFC10BD10B590F83A10222901D022
:10522000022010BD82684FF480539A4201D1016977
:1052300021B1816A9A421BD04AB10AE00268816AB0
:105240005268C2F308020A80816A891C08E0026978
:1052500072B10268526802F07F020A70816A491CCA
:105260008162C18D491E0904090CC18503D016E075
:1052700002685268F1E70168CA6822F02002CA6039
:105280000168CA6822F48072CA6001684A6922F023
:1052900001024A61202180F83A10FFF738FD002012
:1052A00010BD70B5026804461068D168536910F0EB
:1052B0000F0F52D003F0010501F490762E435ED01B
:1052C000C20705D0CA0503D5E26B42F00102E263D2
:1052D000420705D5DA0703D0E26B42F00202E2632F
:1052E000820705D5DA0703D0E26B42F00402E263DD
:1052F000020707D501F020022A4303D0E26B42F0F7
:105300000802E263E26B002A32D0800604D58806E8
:1053100002D52046FFF77FFF20684069E16BC0F3AC
:105320008010090700D420B3204600F0EBF8206875
:105330004169490619D5416921F040014161606B1D
:1053400098B15E494163606BFEF7D0FC00280FD036
:10535000606B416BBDE87040084783060FD58B0634
:105360000DD52046BDE8704055E72046FFF74CFCC0
:1053700070BD2046FFF748FC0020E06370BD0306C7
:105380002BD50B0629D594F839002128F6D1A06831
:10539000B0F5805F01D12069B0B1206A411C216263
:1053A000216800784860E08C401E0004000CE08416
:1053B000E4D12068C16821F08001C1602068C16823
:1053C00041F04001C16070BD206A0088C0F3080050
:1053D0005060206A801C2062E5E74006F3D548064D
:1053E000F1D5D168204621F04001D160202184F818
:1053F0003910FFF735FC70BD90F83810012910D036
:10540000012100F8381F2421417050F8381CCA6867
:1054100042F00102CA60202141700021017008465B
:1054200070470220704790F83810012910D00121F0
:1054300000F8381F2421417050F8381CCA6842F027
:105440000202CA60202141700021017008467047A5
:105450000220704790F83810012910D0012100F87F
:10546000381F2421417050F8381CCA6822F002020B
:10547000CA60202141700021017008467047022057
:10548000704790F8381001291AD0012100F8381F10
:105490002421417050F8381CCA6822F00C0242F0F6
:1054A0000802CA602021417000210170084670473F
:1054B00025500008375100089B510008075200088A
:1054C0000220F4E790F83810012912D0012100F8E9
:1054D000381F2421417050F8381CCA6822F00C0291
:1054E00042F00402CA602021417000210170084688
:1054F000DDE70220DBE710F8391F40780843D6E7E4
:10550000C06BD4E70168CA6822F49072CA6001686F
:105510004A6922F001024A61202180F83A10C6E768
:105520000168CA6822F0C002CA60202180F83910E0
:10553000BDE7202A04DB203A21FA02F0002170475F
:1055400021FA02F3D040C2F12002914008431946EB
:105550007047D2B201E000F8012B491EFBD2704720
:105560000022F6E710B513460A4604461946FFF72F
:10557000F0FF204610BD80EA010210B502F00043A2
:10558000400022D04A001FD0010E01EB1261C0F38F
:105590005600C2F3560240F4000042F40002A0FBA1
:1055A000022000047F39140400D0401C50EA12404D
:1055B00001D44000491EC2B20C0604EBD010401CBE
:1055C0004008802A02D003E0002010BD20F0010036
:1055D000002900DA0020184310BD2DE9FE4F804657
:1055E00081EA0300C00F0C46009021F0004123F037
:1055F0000045B8EB0200A94105D24046214690463D
:105600001C460B46024623F00040104347D0270DAE
:10561000C7F30A00C3F30A510290401A01904028D0
:105620006BDAC3F3130040F4801B0098924620B15C
:105630000023D2EB030A63EB0B0B01985946C0F130
:105640004002504600F0EBF806460D4650465946DB
:10565000019A00F0F3F810EB08006141002487EA9A
:10566000115284EAE7731A4340D0009A62B3019A58
:10567000012A4FEA075215DC001B61EB02014FF0D3
:10568000004202EA0752CDE90042001C41F58011B8
:1056900032462B4600F02AF903B0BDE8F08F4046B1
:1056A0002146F9E7001B61EB0201001C41F5801364
:1056B00000185B412018A2F5001747EB030140EAF0
:1056C000D570B6196D4111E06D084FEA360645EA0E
:1056D000C0754FEA0752001B61EB0201001C41F547
:1056E000801149084FEA30000019514132462B46DB
:1056F00003B0BDE8F04F00F0EAB800980122400086
:105700000023D0EB020263EBE073009821464FEADE
:10571000E074B8EB000061EB0401E9E783F00043BB
:105720005BE781F0004158E70EB5C10F80EAE070F9
:105730000844CA07002140F233438DE80E000A46B0
:105740000B4600F0D3F803B000BD00F0004220F09B
:105750000040C10DC0F3160040F400007F2901DABB
:1057600000207047962903DCC1F19601C84001E092
:1057700096398840002AF4D04042704770B5C1F392
:105780000A5201F000450024C1F3130140F2FF3337
:1057900041F480119A4201DA002070BD40F2334397
:1057A0009A42A2F2334203DC5242FFF7C2FE00E00B
:1057B00090402C43F1D0404270BD01F0004330B422
:1057C00021F0004150EA010206D00A0DA2F56072F4
:1057D000C1F31301002A02DC30BC00207047440FE3
:1057E00044EAC104C100E01830BC00EBC25000F034
:1057F00037B830B50B46014600202022012409E0CD
:1058000021FA02F59D4205D303FA02F5491B04FA79
:1058100002F52844151EA2F10102F1DC30BD202A58
:1058200004DB203A00FA02F1002070479140C2F1F7
:10583000200320FA03F3194390407047202A06DB27
:10584000CB17203A41FA02F043EAE07306E041FA4E
:1058500002F3D040C2F1200291400843194670473C
:105860000029A8BF7047401C490008BF20F0010074
:10587000704710B4B0FA80FC00FA0CF050EA010452
:1058800004BF10BC704749B1CCF1200421FA04F4E4
:1058900011FA0CF118BF012121430843A3EB0C01BD
:1058A000CB1D4FEA00614FEA102042BF002010BC20
:1058B000704700EBC35010440029A4BF10BC7047D0
:1058C000401C490008BF20F0010010BC704710B513
:1058D000141E73F1000408DA401C41F10001921813
:1058E0005B411A4301D120F0010010BD2DE9F04DBC
:1058F00092469B4611B1B1FA81F202E0B0FA80F211
:1059000020329046FFF78BFF04460F4640EA0A001C
:1059100041EA0B0153465A46084313D0114653EA55
:10592000010019D0C8F140025046FFF702FE0546BB
:105930000E46504659464246FFF771FF084305D0D0
:10594000012004E020463946BDE8F08D00200543E3
:1059500046EAE0762C4337430A986305E40AA0EB55
:1059600008000022FD0A44EA47540A3002D500200C
:105970000146E9E7010510196941DDE9084500190B
:105980006941BDE8F04DA2E7064C074D06E0E0682E
:1059900040F0010394E8070098471034AC42F6D376
:1059A000FAF7CAFBBC6F0008DC6F00080FB4054BA8
:1059B00010B503A9044A029800F018F810BC5DF86D
:1059C00014FB0000D30300081C00002002E008C8FC
:1059D000121F08C1002AFAD170477047002001E069
:1059E00001C1121F002AFBD1704700002DE9FF4FB3
:1059F0008BB09A460F460546002606E025280BD0B8
:105A000052460D9990476D1C761C28780028F5D1D8
:105A10000FB03046BDE8F08F0024A0460122604957
:105A200000E0044315F8013F203B02FA03F008426E
:105A3000F7D128782E2817D115F8010F44F0040467
:105A40002A280ED06FF02F022878A0F13001092902
:105A50000AD808EB880102EB410100EB01086D1C3C
:105A6000F2E757F8048B6D1C287869283ED006DCD5
:105A70000028CDD063280BD0642804D136E07328E9
:105A800010D075284BD052460D999047761C85E072
:105A900017F8040B8DF8000000208DF80100E9468E
:105AA000012003E057F8049B4FF0FF3061074FF0EF
:105AB000000401D40AE0641C44450DDA8442FADB98
:105AC00019F804100029F6D106E0641C8442FCDBBE
:105AD00019F804100029F8D1264404E019F8010B44
